{
  "contractName": "SurveyController",
  "abi": [
    {
      "anonymous": false,
      "inputs": [
        {
          "indexed": true,
          "internalType": "address",
          "name": "previousOwner",
          "type": "address"
        },
        {
          "indexed": true,
          "internalType": "address",
          "name": "newOwner",
          "type": "address"
        }
      ],
      "name": "OwnershipTransferred",
      "type": "event"
    },
    {
      "inputs": [
        {
          "internalType": "bytes32",
          "name": "",
          "type": "bytes32"
        }
      ],
      "name": "choiceExists",
      "outputs": [
        {
          "internalType": "bool",
          "name": "",
          "type": "bool"
        }
      ],
      "stateMutability": "view",
      "type": "function"
    },
    {
      "inputs": [
        {
          "internalType": "bytes32",
          "name": "",
          "type": "bytes32"
        }
      ],
      "name": "choiceNames",
      "outputs": [
        {
          "internalType": "bytes32",
          "name": "",
          "type": "bytes32"
        }
      ],
      "stateMutability": "view",
      "type": "function"
    },
    {
      "inputs": [
        {
          "internalType": "bytes32",
          "name": "",
          "type": "bytes32"
        }
      ],
      "name": "choiceValues",
      "outputs": [
        {
          "internalType": "uint256",
          "name": "",
          "type": "uint256"
        }
      ],
      "stateMutability": "view",
      "type": "function"
    },
    {
      "inputs": [],
      "name": "owner",
      "outputs": [
        {
          "internalType": "address",
          "name": "",
          "type": "address"
        }
      ],
      "stateMutability": "view",
      "type": "function"
    },
    {
      "inputs": [],
      "name": "renounceOwnership",
      "outputs": [],
      "stateMutability": "nonpayable",
      "type": "function"
    },
    {
      "inputs": [],
      "name": "surveyCount",
      "outputs": [
        {
          "internalType": "uint256",
          "name": "",
          "type": "uint256"
        }
      ],
      "stateMutability": "view",
      "type": "function"
    },
    {
      "inputs": [
        {
          "internalType": "uint256",
          "name": "",
          "type": "uint256"
        }
      ],
      "name": "surveyList",
      "outputs": [
        {
          "internalType": "string",
          "name": "name",
          "type": "string"
        }
      ],
      "stateMutability": "view",
      "type": "function"
    },
    {
      "inputs": [
        {
          "internalType": "address",
          "name": "newOwner",
          "type": "address"
        }
      ],
      "name": "transferOwnership",
      "outputs": [],
      "stateMutability": "nonpayable",
      "type": "function"
    },
    {
      "inputs": [],
      "name": "initialize",
      "outputs": [],
      "stateMutability": "nonpayable",
      "type": "function"
    },
    {
      "inputs": [
        {
          "internalType": "string",
          "name": "_name",
          "type": "string"
        },
        {
          "internalType": "bytes32[]",
          "name": "_choices",
          "type": "bytes32[]"
        }
      ],
      "name": "createSurvey",
      "outputs": [],
      "stateMutability": "nonpayable",
      "type": "function"
    },
    {
      "inputs": [
        {
          "internalType": "uint256",
          "name": "_id",
          "type": "uint256"
        }
      ],
      "name": "getSurvey",
      "outputs": [
        {
          "internalType": "string",
          "name": "",
          "type": "string"
        },
        {
          "internalType": "bytes32[]",
          "name": "",
          "type": "bytes32[]"
        },
        {
          "internalType": "uint256[10]",
          "name": "",
          "type": "uint256[10]"
        }
      ],
      "stateMutability": "view",
      "type": "function"
    },
    {
      "inputs": [
        {
          "internalType": "uint256",
          "name": "_id",
          "type": "uint256"
        },
        {
          "internalType": "uint256",
          "name": "_choiceID",
          "type": "uint256"
        }
      ],
      "name": "answerSurvey",
      "outputs": [
        {
          "internalType": "bool",
          "name": "",
          "type": "bool"
        }
      ],
      "stateMutability": "nonpayable",
      "type": "function"
    }
  ],
  "bytecode": "0x608060405234801561001057600080fd5b5061194c806100206000396000f3fe608060405234801561001057600080fd5b50600436106100d1576000357c0100000000000000000000000000000000000000000000000000000000900480639f70e5901161008e5780639f70e59014610325578063b8fafa0514610474578063d385607e146104c2578063de190d4714610504578063e804f4c014610548578063f2fde38b14610566576100d1565b806339f8ab65146100d6578063500afddf1461017d578063715018a6146101bf5780638129fc1c146101c957806389670e15146101d35780638da5cb5b146102f1575b600080fd5b610102600480360360208110156100ec57600080fd5b81019080803590602001909291905050506105aa565b6040518080602001828103825283818151815260200191508051906020019080838360005b83811015610142578082015181840152602081019050610127565b50505050905090810190601f16801561016f5780820380516001836020036101000a031916815260200191505b509250505060405180910390f35b6101a96004803603602081101561019357600080fd5b8101908080359060200190929190505050610660565b6040518082815260200191505060405180910390f35b6101c7610678565b005b6101d16107e8565b005b6101ff600480360360208110156101e957600080fd5b81019080803590602001909291905050506107fa565b60405180806020018060200184600a60200280838360005b83811015610232578082015181840152602081019050610217565b50505050905001838103835286818151815260200191508051906020019080838360005b83811015610271578082015181840152602081019050610256565b50505050905090810190601f16801561029e5780820380516001836020036101000a031916815260200191505b50838103825285818151815260200191508051906020019060200280838360005b838110156102da5780820151818401526020810190506102bf565b505050509050019550505050505060405180910390f35b6102f9610bb5565b604051808273ffffffffffffffffffffffffffffffffffffffff16815260200191505060405180910390f35b6104726004803603604081101561033b57600080fd5b810190808035906020019064010000000081111561035857600080fd5b82018360208201111561036a57600080fd5b8035906020019184600183028401116401000000008311171561038c57600080fd5b91908080601f016020809104026020016040519081016040528093929190818152602001838380828437600081840152601f19601f820116905080830192505050505050509192919290803590602001906401000000008111156103ef57600080fd5b82018360208201111561040157600080fd5b8035906020019184602083028401116401000000008311171561042357600080fd5b919080806020026020016040519081016040528093929190818152602001838360200280828437600081840152601f19601f820116905080830192505050505050509192919290505050610bdf565b005b6104aa6004803603604081101561048a57600080fd5b810190808035906020019092919080359060200190929190505050610ded565b60405180821515815260200191505060405180910390f35b6104ee600480360360208110156104d857600080fd5b8101908080359060200190929190505050611151565b6040518082815260200191505060405180910390f35b6105306004803603602081101561051a57600080fd5b8101908080359060200190929190505050611169565b60405180821515815260200191505060405180910390f35b610550611189565b6040518082815260200191505060405180910390f35b6105a86004803603602081101561057c57600080fd5b81019080803573ffffffffffffffffffffffffffffffffffffffff16906020019092919050505061118f565b005b6066602052806000526040600020600091509050806000018054600181600116156101000203166002900480601f0160208091040260200160405190810160405280929190818152602001828054600181600116156101000203166002900480156106565780601f1061062b57610100808354040283529160200191610656565b820191906000526020600020905b81548152906001019060200180831161063957829003601f168201915b5050505050905081565b60686020528060005260406000206000915090505481565b610680611384565b73ffffffffffffffffffffffffffffffffffffffff1661069e610bb5565b73ffffffffffffffffffffffffffffffffffffffff1614610727576040517f08c379a00000000000000000000000000000000000000000000000000000000081526004018080602001828103825260208152602001807f4f776e61626c653a2063616c6c6572206973206e6f7420746865206f776e657281525060200191505060405180910390fd5b600073ffffffffffffffffffffffffffffffffffffffff16603360009054906101000a900473ffffffffffffffffffffffffffffffffffffffff1673ffffffffffffffffffffffffffffffffffffffff167f8be0079c531659141344cd1fd0a4f28419497f9722a3daafe3b4186f6b6457e060405160405180910390a36000603360006101000a81548173ffffffffffffffffffffffffffffffffffffffff021916908373ffffffffffffffffffffffffffffffffffffffff160217905550565b6107f061138c565b6000606581905550565b606080610805611763565b6001841015801561081857506065548411155b61086d576040517f08c379a00000000000000000000000000000000000000000000000000000000081526004018080602001828103825260278152602001806118f06027913960400191505060405180910390fd5b600060666000868152602001908152602001600020604051806040016040529081600082018054600181600116156101000203166002900480601f0160208091040260200160405190810160405280929190818152602001828054600181600116156101000203166002900480156109265780601f106108fb57610100808354040283529160200191610926565b820191906000526020600020905b81548152906001019060200180831161090957829003601f168201915b505050505081526020016001820180548060200260200160405190810160405280929190818152602001828054801561097e57602002820191906000526020600020905b81548152602001906001019080831161096a575b5050505050815250509050610991611763565b60005b826020015151811015610b9a576000878460000151836040516020018084815260200183805190602001908083835b602083106109e657805182526020820191506020810190506020830392506109c3565b6001836020036101000a03801982511681845116808217855250505050505090500182815260200193505050506040516020818303038152906040528051906020012090506069600082815260200190815260200160002060009054906101000a900460ff16610abe576040517f08c379a000000000000000000000000000000000000000000000000000000000815260040180806020018281038252600f8152602001807f496e76616c69642063686f69636521000000000000000000000000000000000081525060200191505060405180910390fd5b83602001518281518110610ace57fe5b6020026020010151606760008381526020019081526020016000205414610b5d576040517f08c379a00000000000000000000000000000000000000000000000000000000081526004018080602001828103825260158152602001807f43686f696365206e616d6520696e636f7272656374000000000000000000000081525060200191505060405180910390fd5b600060686000838152602001908152602001600020549050808484600a8110610b8257fe5b60200201818152505050508080600101915050610994565b50816000015182602001518294509450945050509193909250565b6000603360009054906101000a900473ffffffffffffffffffffffffffffffffffffffff16905090565b600a81511115610c57576040517f08c379a000000000000000000000000000000000000000000000000000000000815260040180806020018281038252601e8152602001807f43616e206f6e6c79206861766520757020746f2031302063686f69636573000081525060200191505060405180910390fd5b60656000815480929190600101919050555060006040518060400160405280848152602001838152509050806066600060655481526020019081526020016000206000820151816000019080519060200190610cb4929190611786565b506020820151816001019080519060200190610cd1929190611814565b5090505060005b8251811015610de757600060655485836040516020018084815260200183805190602001908083835b60208310610d245780518252602082019150602081019050602083039250610d01565b6001836020036101000a0380198251168184511680821785525050505050509050018281526020019350505050604051602081830303815290604052805190602001209050838281518110610d7557fe5b6020026020010151606760008381526020019081526020016000208190555060016069600083815260200190815260200160002060006101000a81548160ff02191690831515021790555060006068600083815260200190815260200160002081905550508080600101915050610cd8565b50505050565b600060018310158015610e0257506065548311155b610e57576040517f08c379a00000000000000000000000000000000000000000000000000000000081526004018080602001828103825260278152602001806118f06027913960400191505060405180910390fd5b600060666000858152602001908152602001600020604051806040016040529081600082018054600181600116156101000203166002900480601f016020809104026020016040519081016040528092919081815260200182805460018160011615610100020316600290048015610f105780601f10610ee557610100808354040283529160200191610f10565b820191906000526020600020905b815481529060010190602001808311610ef357829003601f168201915b5050505050815260200160018201805480602002602001604051908101604052809291908181526020018280548015610f6857602002820191906000526020600020905b815481526020019060010190808311610f54575b505050505081525050905060008310158015610f88575080602001515183105b610ffa576040517f08c379a00000000000000000000000000000000000000000000000000000000081526004018080602001828103825260148152602001807f5f63686f696365494420697320696e76616c696400000000000000000000000081525060200191505060405180910390fd5b6000848260000151856040516020018084815260200183805190602001908083835b6020831061103f578051825260208201915060208101905060208303925061101c565b6001836020036101000a03801982511681845116808217855250505050505090500182815260200193505050506040516020818303038152906040528051906020012090506069600082815260200190815260200160002060009054906101000a900460ff16611117576040517f08c379a000000000000000000000000000000000000000000000000000000000815260040180806020018281038252600f8152602001807f496e76616c69642063686f69636521000000000000000000000000000000000081525060200191505060405180910390fd5b6001606860008381526020019081526020016000205401606860008381526020019081526020016000208190555060019250505092915050565b60676020528060005260406000206000915090505481565b60696020528060005260406000206000915054906101000a900460ff1681565b60655481565b611197611384565b73ffffffffffffffffffffffffffffffffffffffff166111b5610bb5565b73ffffffffffffffffffffffffffffffffffffffff161461123e576040517f08c379a00000000000000000000000000000000000000000000000000000000081526004018080602001828103825260208152602001807f4f776e61626c653a2063616c6c6572206973206e6f7420746865206f776e657281525060200191505060405180910390fd5b600073ffffffffffffffffffffffffffffffffffffffff168173ffffffffffffffffffffffffffffffffffffffff1614156112c4576040517f08c379a000000000000000000000000000000000000000000000000000000000815260040180806020018281038252602681526020018061189c6026913960400191505060405180910390fd5b8073ffffffffffffffffffffffffffffffffffffffff16603360009054906101000a900473ffffffffffffffffffffffffffffffffffffffff1673ffffffffffffffffffffffffffffffffffffffff167f8be0079c531659141344cd1fd0a4f28419497f9722a3daafe3b4186f6b6457e060405160405180910390a380603360006101000a81548173ffffffffffffffffffffffffffffffffffffffff021916908373ffffffffffffffffffffffffffffffffffffffff16021790555050565b600033905090565b600060019054906101000a900460ff16806113ab57506113aa61149a565b5b806113c1575060008054906101000a900460ff16155b611416576040517f08c379a000000000000000000000000000000000000000000000000000000000815260040180806020018281038252602e8152602001806118c2602e913960400191505060405180910390fd5b60008060019054906101000a900460ff161590508015611466576001600060016101000a81548160ff02191690831515021790555060016000806101000a81548160ff0219169083151502179055505b61146e6114ab565b6114766115a9565b80156114975760008060016101000a81548160ff0219169083151502179055505b50565b60006114a530611750565b15905090565b600060019054906101000a900460ff16806114ca57506114c961149a565b5b806114e0575060008054906101000a900460ff16155b611535576040517f08c379a000000000000000000000000000000000000000000000000000000000815260040180806020018281038252602e8152602001806118c2602e913960400191505060405180910390fd5b60008060019054906101000a900460ff161590508015611585576001600060016101000a81548160ff02191690831515021790555060016000806101000a81548160ff0219169083151502179055505b80156115a65760008060016101000a81548160ff0219169083151502179055505b50565b600060019054906101000a900460ff16806115c857506115c761149a565b5b806115de575060008054906101000a900460ff16155b611633576040517f08c379a000000000000000000000000000000000000000000000000000000000815260040180806020018281038252602e8152602001806118c2602e913960400191505060405180910390fd5b60008060019054906101000a900460ff161590508015611683576001600060016101000a81548160ff02191690831515021790555060016000806101000a81548160ff0219169083151502179055505b600061168d611384565b905080603360006101000a81548173ffffffffffffffffffffffffffffffffffffffff021916908373ffffffffffffffffffffffffffffffffffffffff1602179055508073ffffffffffffffffffffffffffffffffffffffff16600073ffffffffffffffffffffffffffffffffffffffff167f8be0079c531659141344cd1fd0a4f28419497f9722a3daafe3b4186f6b6457e060405160405180910390a350801561174d5760008060016101000a81548160ff0219169083151502179055505b50565b600080823b905060008111915050919050565b604051806101400160405280600a90602082028036833780820191505090505090565b828054600181600116156101000203166002900490600052602060002090601f0160209004810192826117bc5760008555611803565b82601f106117d557805160ff1916838001178555611803565b82800160010185558215611803579182015b828111156118025782518255916020019190600101906117e7565b5b5090506118109190611861565b5090565b828054828255906000526020600020908101928215611850579160200282015b8281111561184f578251825591602001919060010190611834565b5b50905061185d919061187e565b5090565b5b8082111561187a576000816000905550600101611862565b5090565b5b8082111561189757600081600090555060010161187f565b509056fe4f776e61626c653a206e6577206f776e657220697320746865207a65726f2061646472657373496e697469616c697a61626c653a20636f6e747261637420697320616c726561647920696e697469616c697a65644944206d757374206265206265747765656e206f6e6520616e642073757276657920636f756e74a26469706673582212207331d1c6fa764b67b8ef4d7f71bb69ebe13164d178c0f36e494bd9c67543569a64736f6c63430007060033",
  "immutableReferences": {},
  "source": "// SPDX-License-Identifier: MIT\npragma solidity >=0.4.22 <0.9.0;\n\nimport \"@openzeppelin/contracts-upgradeable/access/OwnableUpgradeable.sol\";\n\ncontract SurveyController is OwnableUpgradeable {\n    struct Survey {\n        string name;\n        bytes32[] choices;\n    }\n    uint256 public surveyCount;\n    mapping(uint256 => Survey) public surveyList;\n    mapping(bytes32 => bytes32) public choiceNames;\n    mapping(bytes32 => uint256) public choiceValues;\n    mapping(bytes32 => bool) public choiceExists;\n\n    function initialize() public {\n        __Ownable_init();\n        surveyCount = 0;\n    }\n\n    function createSurvey(string memory _name, bytes32[] memory _choices)\n        public\n    {\n        require(_choices.length <= 10, \"Can only have up to 10 choices\");\n        //Increment surveycount. This serves as the id.\n        //First survey will have id of 1\n        surveyCount++;\n        Survey memory survey = Survey(_name, _choices);\n        //Store in surveylist array\n        surveyList[surveyCount] = survey;\n        //This is done because we cannot have individual surveys to unique mappings for each choice\n        //All surveys will store their choice data in a single shared global mapping\n        //Use surveyCount + name + choice index to generate a choice identifier(choiceID). This should have no collisions\n        //ChoiceID is used to keep track of individual values in a global mapping\n        for (uint256 i = 0; i < _choices.length; i++) {\n            bytes32 choiceIdentifier =\n                keccak256(abi.encodePacked(surveyCount, _name, i));\n            choiceNames[choiceIdentifier] = _choices[i];\n            choiceExists[choiceIdentifier] = true;\n            choiceValues[choiceIdentifier] = 0;\n        }\n    }\n\n    function getSurvey(uint256 _id)\n        public\n        view\n        returns (\n            string memory,\n            bytes32[] memory,\n            uint256[10] memory\n        )\n    {\n        require(\n            _id >= 1 && _id <= surveyCount,\n            \"ID must be between one and survey count\"\n        );\n        Survey memory survey = surveyList[_id];\n        uint256[10] memory values;\n        for (uint256 i = 0; i < survey.choices.length; i++) {\n            bytes32 choiceIdentifier =\n                keccak256(abi.encodePacked(_id, survey.name, i));\n            require(choiceExists[choiceIdentifier], \"Invalid choice!\");\n            require(\n                choiceNames[choiceIdentifier] == survey.choices[i],\n                \"Choice name incorrect\"\n            );\n            uint256 answer = choiceValues[choiceIdentifier];\n            values[i] = answer;\n        }\n        return (survey.name, survey.choices, values);\n    }\n\n    function answerSurvey(uint256 _id, uint256 _choiceID)\n        public\n        returns (bool)\n    {\n        require(\n            _id >= 1 && _id <= surveyCount,\n            \"ID must be between one and survey count\"\n        );\n\n        Survey memory survey = surveyList[_id];\n        require(\n            _choiceID >= 0 && _choiceID < survey.choices.length,\n            \"_choiceID is invalid\"\n        );\n\n        bytes32 choiceIdentifier =\n            keccak256(abi.encodePacked(_id, survey.name, _choiceID));\n        require(choiceExists[choiceIdentifier], \"Invalid choice!\");\n\n        choiceValues[choiceIdentifier] = choiceValues[choiceIdentifier] + 1;\n        return true;\n    }\n}\n",
  "sourcePath": "/Users/syahrul/Desktop/projects/RampDefi/contracts/SurveyController.sol",
  "compiler": {
    "name": "solc",
    "version": "0.7.6+commit.7338295f.Emscripten.clang"
  },
  "schemaVersion": "3.3.3",
  "updatedAt": "2021-02-07T12:53:11.969Z",
  "devdoc": {
    "kind": "dev",
    "methods": {
      "owner()": {
        "details": "Returns the address of the current owner."
      },
      "renounceOwnership()": {
        "details": "Leaves the contract without owner. It will not be possible to call `onlyOwner` functions anymore. Can only be called by the current owner. NOTE: Renouncing ownership will leave the contract without an owner, thereby removing any functionality that is only available to the owner."
      },
      "transferOwnership(address)": {
        "details": "Transfers ownership of the contract to a new account (`newOwner`). Can only be called by the current owner."
      }
    },
    "version": 1
  },
  "userdoc": {
    "kind": "user",
    "methods": {},
    "version": 1
  }
}