{
  "contractName": "SurveyController",
  "abi": [
    {
      "anonymous": false,
      "inputs": [
        {
          "indexed": true,
          "internalType": "address",
          "name": "previousOwner",
          "type": "address"
        },
        {
          "indexed": true,
          "internalType": "address",
          "name": "newOwner",
          "type": "address"
        }
      ],
      "name": "OwnershipTransferred",
      "type": "event"
    },
    {
      "inputs": [
        {
          "internalType": "bytes32",
          "name": "",
          "type": "bytes32"
        }
      ],
      "name": "choiceExists",
      "outputs": [
        {
          "internalType": "bool",
          "name": "",
          "type": "bool"
        }
      ],
      "stateMutability": "view",
      "type": "function"
    },
    {
      "inputs": [
        {
          "internalType": "bytes32",
          "name": "",
          "type": "bytes32"
        }
      ],
      "name": "choiceNames",
      "outputs": [
        {
          "internalType": "bytes32",
          "name": "",
          "type": "bytes32"
        }
      ],
      "stateMutability": "view",
      "type": "function"
    },
    {
      "inputs": [
        {
          "internalType": "bytes32",
          "name": "",
          "type": "bytes32"
        }
      ],
      "name": "choiceValues",
      "outputs": [
        {
          "internalType": "uint256",
          "name": "",
          "type": "uint256"
        }
      ],
      "stateMutability": "view",
      "type": "function"
    },
    {
      "inputs": [],
      "name": "owner",
      "outputs": [
        {
          "internalType": "address",
          "name": "",
          "type": "address"
        }
      ],
      "stateMutability": "view",
      "type": "function"
    },
    {
      "inputs": [],
      "name": "renounceOwnership",
      "outputs": [],
      "stateMutability": "nonpayable",
      "type": "function"
    },
    {
      "inputs": [
        {
          "internalType": "uint256",
          "name": "",
          "type": "uint256"
        }
      ],
      "name": "surveyList",
      "outputs": [
        {
          "internalType": "string",
          "name": "name",
          "type": "string"
        },
        {
          "internalType": "uint256",
          "name": "choiceCount",
          "type": "uint256"
        }
      ],
      "stateMutability": "view",
      "type": "function"
    },
    {
      "inputs": [
        {
          "internalType": "address",
          "name": "newOwner",
          "type": "address"
        }
      ],
      "name": "transferOwnership",
      "outputs": [],
      "stateMutability": "nonpayable",
      "type": "function"
    },
    {
      "inputs": [],
      "name": "initialize",
      "outputs": [],
      "stateMutability": "nonpayable",
      "type": "function"
    },
    {
      "inputs": [
        {
          "internalType": "string",
          "name": "_name",
          "type": "string"
        },
        {
          "internalType": "uint256",
          "name": "_choiceCount",
          "type": "uint256"
        },
        {
          "internalType": "bytes32[]",
          "name": "_choices",
          "type": "bytes32[]"
        }
      ],
      "name": "createSurvey",
      "outputs": [],
      "stateMutability": "nonpayable",
      "type": "function"
    },
    {
      "inputs": [
        {
          "internalType": "uint256",
          "name": "_id",
          "type": "uint256"
        }
      ],
      "name": "getSurvey",
      "outputs": [
        {
          "internalType": "string",
          "name": "",
          "type": "string"
        }
      ],
      "stateMutability": "view",
      "type": "function"
    },
    {
      "inputs": [],
      "name": "answerSurvey",
      "outputs": [],
      "stateMutability": "nonpayable",
      "type": "function"
    },
    {
      "inputs": [],
      "name": "getSurveyCount",
      "outputs": [
        {
          "internalType": "uint256",
          "name": "",
          "type": "uint256"
        }
      ],
      "stateMutability": "view",
      "type": "function"
    }
  ],
  "bytecode": "0x608060405234801561001057600080fd5b5061131a806100206000396000f3fe608060405234801561001057600080fd5b50600436106100d1576000357c0100000000000000000000000000000000000000000000000000000000900480639596946c1161008e5780639596946c146102b55780639b144637146102bf5780639fe140b114610418578063d385607e14610436578063de190d4714610478578063f2fde38b146104bc576100d1565b806339f8ab65146100d6578063500afddf14610184578063715018a6146101c65780638129fc1c146101d057806389670e15146101da5780638da5cb5b14610281575b600080fd5b610102600480360360208110156100ec57600080fd5b8101908080359060200190929190505050610500565b6040518080602001838152602001828103825284818151815260200191508051906020019080838360005b8381101561014857808201518184015260208101905061012d565b50505050905090810190601f1680156101755780820380516001836020036101000a031916815260200191505b50935050505060405180910390f35b6101b06004803603602081101561019a57600080fd5b81019080803590602001909291905050506105bc565b6040518082815260200191505060405180910390f35b6101ce6105d4565b005b6101d8610744565b005b610206600480360360208110156101f057600080fd5b8101908080359060200190929190505050610756565b6040518080602001828103825283818151815260200191508051906020019080838360005b8381101561024657808201518184015260208101905061022b565b50505050905090810190601f1680156102735780820380516001836020036101000a031916815260200191505b509250505060405180910390f35b6102896108f3565b604051808273ffffffffffffffffffffffffffffffffffffffff16815260200191505060405180910390f35b6102bd61091d565b005b610416600480360360608110156102d557600080fd5b81019080803590602001906401000000008111156102f257600080fd5b82018360208201111561030457600080fd5b8035906020019184600183028401116401000000008311171561032657600080fd5b91908080601f016020809104026020016040519081016040528093929190818152602001838380828437600081840152601f19601f820116905080830192505050505050509192919290803590602001909291908035906020019064010000000081111561039357600080fd5b8201836020820111156103a557600080fd5b803590602001918460208302840111640100000000831117156103c757600080fd5b919080806020026020016040519081016040528093929190818152602001838360200280828437600081840152601f19601f82011690508083019250505050505050919291929050505061091f565b005b610420610b3e565b6040518082815260200191505060405180910390f35b6104626004803603602081101561044c57600080fd5b8101908080359060200190929190505050610b48565b6040518082815260200191505060405180910390f35b6104a46004803603602081101561048e57600080fd5b8101908080359060200190929190505050610b60565b60405180821515815260200191505060405180910390f35b6104fe600480360360208110156104d257600080fd5b81019080803573ffffffffffffffffffffffffffffffffffffffff169060200190929190505050610b80565b005b6066602052806000526040600020600091509050806000018054600181600116156101000203166002900480601f0160208091040260200160405190810160405280929190818152602001828054600181600116156101000203166002900480156105ac5780601f10610581576101008083540402835291602001916105ac565b820191906000526020600020905b81548152906001019060200180831161058f57829003601f168201915b5050505050908060010154905082565b60686020528060005260406000206000915090505481565b6105dc610d75565b73ffffffffffffffffffffffffffffffffffffffff166105fa6108f3565b73ffffffffffffffffffffffffffffffffffffffff1614610683576040517f08c379a00000000000000000000000000000000000000000000000000000000081526004018080602001828103825260208152602001807f4f776e61626c653a2063616c6c6572206973206e6f7420746865206f776e657281525060200191505060405180910390fd5b600073ffffffffffffffffffffffffffffffffffffffff16603360009054906101000a900473ffffffffffffffffffffffffffffffffffffffff1673ffffffffffffffffffffffffffffffffffffffff167f8be0079c531659141344cd1fd0a4f28419497f9722a3daafe3b4186f6b6457e060405160405180910390a36000603360006101000a81548173ffffffffffffffffffffffffffffffffffffffff021916908373ffffffffffffffffffffffffffffffffffffffff160217905550565b61074c610d7d565b6000606581905550565b60606001821015801561076b57506065548211155b6107c0576040517f08c379a00000000000000000000000000000000000000000000000000000000081526004018080602001828103825260278152602001806112be6027913960400191505060405180910390fd5b600060666000848152602001908152602001600020604051806060016040529081600082018054600181600116156101000203166002900480601f0160208091040260200160405190810160405280929190818152602001828054600181600116156101000203166002900480156108795780601f1061084e57610100808354040283529160200191610879565b820191906000526020600020905b81548152906001019060200180831161085c57829003601f168201915b5050505050815260200160018201548152602001600282018054806020026020016040519081016040528092919081815260200182805480156108db57602002820191906000526020600020905b8154815260200190600101908083116108c7575b50505050508152505090508060000151915050919050565b6000603360009054906101000a900473ffffffffffffffffffffffffffffffffffffffff16905090565b565b600a81511115610997576040517f08c379a000000000000000000000000000000000000000000000000000000000815260040180806020018281038252601e8152602001807f43616e206f6e6c79206861766520757020746f2031302063686f69636573000081525060200191505060405180910390fd5b606560008154809291906001019190505550600060405180606001604052808581526020018481526020018381525090508060666000606554815260200190815260200160002060008201518160000190805190602001906109fa929190611154565b50602082015181600101556040820151816002019080519060200190610a219291906111e2565b5090505060005b8251811015610b3757600060655486836040516020018084815260200183805190602001908083835b60208310610a745780518252602082019150602081019050602083039250610a51565b6001836020036101000a0380198251168184511680821785525050505050509050018281526020019350505050604051602081830303815290604052805190602001209050838281518110610ac557fe5b6020026020010151606760008381526020019081526020016000208190555060016069600083815260200190815260200160002060006101000a81548160ff02191690831515021790555060006068600083815260200190815260200160002081905550508080600101915050610a28565b5050505050565b6000606554905090565b60676020528060005260406000206000915090505481565b60696020528060005260406000206000915054906101000a900460ff1681565b610b88610d75565b73ffffffffffffffffffffffffffffffffffffffff16610ba66108f3565b73ffffffffffffffffffffffffffffffffffffffff1614610c2f576040517f08c379a00000000000000000000000000000000000000000000000000000000081526004018080602001828103825260208152602001807f4f776e61626c653a2063616c6c6572206973206e6f7420746865206f776e657281525060200191505060405180910390fd5b600073ffffffffffffffffffffffffffffffffffffffff168173ffffffffffffffffffffffffffffffffffffffff161415610cb5576040517f08c379a000000000000000000000000000000000000000000000000000000000815260040180806020018281038252602681526020018061126a6026913960400191505060405180910390fd5b8073ffffffffffffffffffffffffffffffffffffffff16603360009054906101000a900473ffffffffffffffffffffffffffffffffffffffff1673ffffffffffffffffffffffffffffffffffffffff167f8be0079c531659141344cd1fd0a4f28419497f9722a3daafe3b4186f6b6457e060405160405180910390a380603360006101000a81548173ffffffffffffffffffffffffffffffffffffffff021916908373ffffffffffffffffffffffffffffffffffffffff16021790555050565b600033905090565b600060019054906101000a900460ff1680610d9c5750610d9b610e8b565b5b80610db2575060008054906101000a900460ff16155b610e07576040517f08c379a000000000000000000000000000000000000000000000000000000000815260040180806020018281038252602e815260200180611290602e913960400191505060405180910390fd5b60008060019054906101000a900460ff161590508015610e57576001600060016101000a81548160ff02191690831515021790555060016000806101000a81548160ff0219169083151502179055505b610e5f610e9c565b610e67610f9a565b8015610e885760008060016101000a81548160ff0219169083151502179055505b50565b6000610e9630611141565b15905090565b600060019054906101000a900460ff1680610ebb5750610eba610e8b565b5b80610ed1575060008054906101000a900460ff16155b610f26576040517f08c379a000000000000000000000000000000000000000000000000000000000815260040180806020018281038252602e815260200180611290602e913960400191505060405180910390fd5b60008060019054906101000a900460ff161590508015610f76576001600060016101000a81548160ff02191690831515021790555060016000806101000a81548160ff0219169083151502179055505b8015610f975760008060016101000a81548160ff0219169083151502179055505b50565b600060019054906101000a900460ff1680610fb95750610fb8610e8b565b5b80610fcf575060008054906101000a900460ff16155b611024576040517f08c379a000000000000000000000000000000000000000000000000000000000815260040180806020018281038252602e815260200180611290602e913960400191505060405180910390fd5b60008060019054906101000a900460ff161590508015611074576001600060016101000a81548160ff02191690831515021790555060016000806101000a81548160ff0219169083151502179055505b600061107e610d75565b905080603360006101000a81548173ffffffffffffffffffffffffffffffffffffffff021916908373ffffffffffffffffffffffffffffffffffffffff1602179055508073ffffffffffffffffffffffffffffffffffffffff16600073ffffffffffffffffffffffffffffffffffffffff167f8be0079c531659141344cd1fd0a4f28419497f9722a3daafe3b4186f6b6457e060405160405180910390a350801561113e5760008060016101000a81548160ff0219169083151502179055505b50565b600080823b905060008111915050919050565b828054600181600116156101000203166002900490600052602060002090601f01602090048101928261118a57600085556111d1565b82601f106111a357805160ff19168380011785556111d1565b828001600101855582156111d1579182015b828111156111d05782518255916020019190600101906111b5565b5b5090506111de919061122f565b5090565b82805482825590600052602060002090810192821561121e579160200282015b8281111561121d578251825591602001919060010190611202565b5b50905061122b919061124c565b5090565b5b80821115611248576000816000905550600101611230565b5090565b5b8082111561126557600081600090555060010161124d565b509056fe4f776e61626c653a206e6577206f776e657220697320746865207a65726f2061646472657373496e697469616c697a61626c653a20636f6e747261637420697320616c726561647920696e697469616c697a65644944206d757374206265206265747765656e206f6e6520616e642073757276657920636f756e74a2646970667358221220a7094b6d620a698c1719b51527b3ea85b257d48653987225e59cbcfeaadf26d164736f6c63430007060033",
  "immutableReferences": {},
  "source": "// SPDX-License-Identifier: MIT\npragma solidity >=0.4.22 <0.9.0;\n\nimport \"@openzeppelin/contracts-upgradeable/access/OwnableUpgradeable.sol\";\n\ncontract SurveyController is OwnableUpgradeable {\n    struct Survey {\n        string name;\n        uint256 choiceCount;\n        bytes32[] choices;\n    }\n    uint256 private surveyCount;\n    mapping(uint256 => Survey) public surveyList;\n    mapping(bytes32 => bytes32) public choiceNames;\n    mapping(bytes32 => uint256) public choiceValues;\n    mapping(bytes32 => bool) public choiceExists;\n\n    function initialize() public {\n        __Ownable_init();\n        surveyCount = 0;\n    }\n\n    function createSurvey(\n        string memory _name,\n        uint256 _choiceCount,\n        bytes32[] memory _choices\n    ) public {\n        require(_choices.length <= 10, \"Can only have up to 10 choices\");\n        //Increment surveycount. This serves as the id.\n        //First survey will have id of 1\n        surveyCount++;\n        Survey memory survey = Survey(_name, _choiceCount, _choices);\n        //Store in surveylist array\n        surveyList[surveyCount] = survey;\n        //This is done because we cannot have individual surveys to unique mappings for each choice\n        //All surveys will store their choice data in a single shared global mapping\n        //Use surveyCount + name + choice index to generate a choice identifier(choiceID). This should have no collisions\n        //ChoiceID is used to keep track of individual values in a global mapping\n        for (uint256 i = 0; i < _choices.length; i++) {\n            bytes32 choiceIdentifier =\n                keccak256(abi.encodePacked(surveyCount, _name, i));\n            choiceNames[choiceIdentifier] = _choices[i];\n            choiceExists[choiceIdentifier] = true;\n            choiceValues[choiceIdentifier] = 0;\n        }\n    }\n\n    function getSurvey(uint256 _id) public view returns (string memory) {\n        require(\n            _id >= 1 && _id <= surveyCount,\n            \"ID must be between one and survey count\"\n        );\n        Survey memory survey = surveyList[_id];\n        return survey.name;\n    }\n\n    function answerSurvey() public {}\n\n    function getSurveyCount() public view returns (uint256) {\n        return surveyCount;\n    }\n}\n",
  "sourcePath": "/Users/muhdsyahrulnizam/Desktop/projects/RampDefi/contracts/SurveyController.sol",
  "compiler": {
    "name": "solc",
    "version": "0.7.6+commit.7338295f.Emscripten.clang"
  },
  "schemaVersion": "3.3.3",
  "updatedAt": "2021-02-03T11:18:53.061Z",
  "devdoc": {
    "kind": "dev",
    "methods": {
      "owner()": {
        "details": "Returns the address of the current owner."
      },
      "renounceOwnership()": {
        "details": "Leaves the contract without owner. It will not be possible to call `onlyOwner` functions anymore. Can only be called by the current owner. NOTE: Renouncing ownership will leave the contract without an owner, thereby removing any functionality that is only available to the owner."
      },
      "transferOwnership(address)": {
        "details": "Transfers ownership of the contract to a new account (`newOwner`). Can only be called by the current owner."
      }
    },
    "version": 1
  },
  "userdoc": {
    "kind": "user",
    "methods": {},
    "version": 1
  }
}